{
  "_format": "hh-sol-artifact-1",
  "contractName": "SpeechRecorder",
  "sourceName": "contracts/SpeechRecorder.sol",
  "abi": [
    {
      "anonymous": false,
      "inputs": [
        {
          "indexed": false,
          "internalType": "uint256",
          "name": "id",
          "type": "uint256"
        },
        {
          "indexed": true,
          "internalType": "address",
          "name": "speaker",
          "type": "address"
        },
        {
          "indexed": false,
          "internalType": "string",
          "name": "speech",
          "type": "string"
        }
      ],
      "name": "SpeechRecorded",
      "type": "event"
    },
    {
      "inputs": [
        {
          "internalType": "uint256",
          "name": "id",
          "type": "uint256"
        }
      ],
      "name": "get",
      "outputs": [
        {
          "components": [
            {
              "internalType": "address",
              "name": "sender",
              "type": "address"
            },
            {
              "internalType": "string",
              "name": "content",
              "type": "string"
            },
            {
              "internalType": "uint256",
              "name": "id",
              "type": "uint256"
            }
          ],
          "internalType": "struct SpeechRecorder.Speech",
          "name": "",
          "type": "tuple"
        }
      ],
      "stateMutability": "view",
      "type": "function"
    },
    {
      "inputs": [
        {
          "internalType": "uint256",
          "name": "startFrom",
          "type": "uint256"
        }
      ],
      "name": "getPage",
      "outputs": [
        {
          "components": [
            {
              "internalType": "address",
              "name": "sender",
              "type": "address"
            },
            {
              "internalType": "string",
              "name": "content",
              "type": "string"
            },
            {
              "internalType": "uint256",
              "name": "id",
              "type": "uint256"
            }
          ],
          "internalType": "struct SpeechRecorder.Speech[]",
          "name": "",
          "type": "tuple[]"
        }
      ],
      "stateMutability": "view",
      "type": "function"
    },
    {
      "inputs": [
        {
          "internalType": "string",
          "name": "content",
          "type": "string"
        }
      ],
      "name": "record",
      "outputs": [
        {
          "internalType": "uint256",
          "name": "",
          "type": "uint256"
        }
      ],
      "stateMutability": "nonpayable",
      "type": "function"
    }
  ],
  "bytecode": "0x608060405234801561001057600080fd5b50610e34806100206000396000f3fe608060405234801561001057600080fd5b50600436106100415760003560e01c8063137a3c96146100465780639507d39a14610076578063e51ace16146100a6575b600080fd5b610060600480360381019061005b91906107ed565b6100d6565b60405161006d9190610a01565b60405180910390f35b610090600480360381019061008b91906107ed565b61033a565b60405161009d9190610a43565b60405180910390f35b6100c060048036038101906100bb91906107ac565b610459565b6040516100cd9190610a65565b60405180910390f35b606060006100e460006105b7565b905060008082600a866100f79190610b6c565b1161010357600a610110565b848361010f9190610bc2565b5b905060008167ffffffffffffffff811115610154577f4e487b7100000000000000000000000000000000000000000000000000000000600052604160045260246000fd5b60405190808252806020026020018201604052801561018d57816020015b61017a610655565b8152602001906001900390816101725790505b5090505b600a831080156101ab57508383876101a99190610b6c565b105b1561032e5760016000600185896101c29190610b6c565b6101cc9190610b6c565b81526020019081526020016000206040518060600160405290816000820160009054906101000a900473ffffffffffffffffffffffffffffffffffffffff1673ffffffffffffffffffffffffffffffffffffffff1673ffffffffffffffffffffffffffffffffffffffff16815260200160018201805461024b90610c74565b80601f016020809104026020016040519081016040528092919081815260200182805461027790610c74565b80156102c45780601f10610299576101008083540402835291602001916102c4565b820191906000526020600020905b8154815290600101906020018083116102a757829003601f168201915b50505050508152602001600282015481525050818481518110610310577f4e487b7100000000000000000000000000000000000000000000000000000000600052603260045260246000fd5b6020026020010181905250828061032690610cd7565b935050610191565b80945050505050919050565b610342610655565b600160008381526020019081526020016000206040518060600160405290816000820160009054906101000a900473ffffffffffffffffffffffffffffffffffffffff1673ffffffffffffffffffffffffffffffffffffffff1673ffffffffffffffffffffffffffffffffffffffff1681526020016001820180546103c690610c74565b80601f01602080910402602001604051908101604052809291908181526020018280546103f290610c74565b801561043f5780601f106104145761010080835404028352916020019161043f565b820191906000526020600020905b81548152906001019060200180831161042257829003601f168201915b505050505081526020016002820154815250509050919050565b6000610464826105c5565b6104a3576040517f08c379a000000000000000000000000000000000000000000000000000000000815260040161049a90610a23565b60405180910390fd5b6104ad60006105e5565b60006104c333846104be60006105b7565b6105fb565b905080600160008360400151815260200190815260200160002060008201518160000160006101000a81548173ffffffffffffffffffffffffffffffffffffffff021916908373ffffffffffffffffffffffffffffffffffffffff160217905550602082015181600101908051906020019061054092919061068c565b5060408201518160020155905050806000015173ffffffffffffffffffffffffffffffffffffffff167fff6a50d791deab24ec59c429138b2864d537d675a66305b8ff7c1b56fa8b260f826040015183602001516040516105a2929190610a80565b60405180910390a28060400151915050919050565b600081600001549050919050565b600080825190506000811180156105dd575061010081105b915050919050565b6001816000016000828254019250508190555050565b610603610655565b83816000019073ffffffffffffffffffffffffffffffffffffffff16908173ffffffffffffffffffffffffffffffffffffffff1681525050828160200181905250818160400181815250509392505050565b6040518060600160405280600073ffffffffffffffffffffffffffffffffffffffff16815260200160608152602001600081525090565b82805461069890610c74565b90600052602060002090601f0160209004810192826106ba5760008555610701565b82601f106106d357805160ff1916838001178555610701565b82800160010185558215610701579182015b828111156107005782518255916020019190600101906106e5565b5b50905061070e9190610712565b5090565b5b8082111561072b576000816000905550600101610713565b5090565b600061074261073d84610ad5565b610ab0565b90508281526020810184848401111561075a57600080fd5b610765848285610c32565b509392505050565b600082601f83011261077e57600080fd5b813561078e84826020860161072f565b91505092915050565b6000813590506107a681610de7565b92915050565b6000602082840312156107be57600080fd5b600082013567ffffffffffffffff8111156107d857600080fd5b6107e48482850161076d565b91505092915050565b6000602082840312156107ff57600080fd5b600061080d84828501610797565b91505092915050565b60006108228383610943565b905092915050565b61083381610bf6565b82525050565b600061084482610b16565b61084e8185610b39565b93508360208202850161086085610b06565b8060005b8581101561089c578484038952815161087d8582610816565b945061088883610b2c565b925060208a01995050600181019050610864565b50829750879550505050505092915050565b60006108b982610b21565b6108c38185610b4a565b93506108d3818560208601610c41565b6108dc81610dad565b840191505092915050565b60006108f282610b21565b6108fc8185610b5b565b935061090c818560208601610c41565b61091581610dad565b840191505092915050565b600061092d601c83610b5b565b915061093882610dbe565b602082019050919050565b600060608301600083015161095b600086018261082a565b506020830151848203602086015261097382826108ae565b915050604083015161098860408601826109e3565b508091505092915050565b60006060830160008301516109ab600086018261082a565b50602083015184820360208601526109c382826108ae565b91505060408301516109d860408601826109e3565b508091505092915050565b6109ec81610c28565b82525050565b6109fb81610c28565b82525050565b60006020820190508181036000830152610a1b8184610839565b905092915050565b60006020820190508181036000830152610a3c81610920565b9050919050565b60006020820190508181036000830152610a5d8184610993565b905092915050565b6000602082019050610a7a60008301846109f2565b92915050565b6000604082019050610a9560008301856109f2565b8181036020830152610aa781846108e7565b90509392505050565b6000610aba610acb565b9050610ac68282610ca6565b919050565b6000604051905090565b600067ffffffffffffffff821115610af057610aef610d7e565b5b610af982610dad565b9050602081019050919050565b6000819050602082019050919050565b600081519050919050565b600081519050919050565b6000602082019050919050565b600082825260208201905092915050565b600082825260208201905092915050565b600082825260208201905092915050565b6000610b7782610c28565b9150610b8283610c28565b9250827fffffffffffffffffffffffffffffffffffffffffffffffffffffffffffffffff03821115610bb757610bb6610d20565b5b828201905092915050565b6000610bcd82610c28565b9150610bd883610c28565b925082821015610beb57610bea610d20565b5b828203905092915050565b6000610c0182610c08565b9050919050565b600073ffffffffffffffffffffffffffffffffffffffff82169050919050565b6000819050919050565b82818337600083830152505050565b60005b83811015610c5f578082015181840152602081019050610c44565b83811115610c6e576000848401525b50505050565b60006002820490506001821680610c8c57607f821691505b60208210811415610ca057610c9f610d4f565b5b50919050565b610caf82610dad565b810181811067ffffffffffffffff82111715610cce57610ccd610d7e565b5b80604052505050565b6000610ce282610c28565b91507fffffffffffffffffffffffffffffffffffffffffffffffffffffffffffffffff821415610d1557610d14610d20565b5b600182019050919050565b7f4e487b7100000000000000000000000000000000000000000000000000000000600052601160045260246000fd5b7f4e487b7100000000000000000000000000000000000000000000000000000000600052602260045260246000fd5b7f4e487b7100000000000000000000000000000000000000000000000000000000600052604160045260246000fd5b6000601f19601f8301169050919050565b7f636f6e74656e7420697320656d707479206f7220746f6f206c6f6e6700000000600082015250565b610df081610c28565b8114610dfb57600080fd5b5056fea26469706673582212207ca69fcd9ed08757a97b69bb0d53da9d37764a9d909224918a564750af41d57964736f6c63430008040033",
  "linkReferences": {},
  "deployedLinkReferences": {}
}